{
  "contractName": "HelloWorld",
  "abi": [
    {
      "inputs": [],
      "name": "getTestNum",
      "outputs": [
        {
          "internalType": "uint256",
          "name": "",
          "type": "uint256"
        }
      ],
      "stateMutability": "view",
      "type": "function",
      "constant": true
    },
    {
      "inputs": [],
      "name": "getTestString",
      "outputs": [
        {
          "internalType": "bytes32",
          "name": "",
          "type": "bytes32"
        }
      ],
      "stateMutability": "view",
      "type": "function",
      "constant": true
    },
    {
      "inputs": [],
      "name": "numOfFunders",
      "outputs": [
        {
          "internalType": "uint256",
          "name": "",
          "type": "uint256"
        }
      ],
      "stateMutability": "view",
      "type": "function",
      "constant": true
    },
    {
      "inputs": [],
      "name": "owner",
      "outputs": [
        {
          "internalType": "address",
          "name": "",
          "type": "address"
        }
      ],
      "stateMutability": "view",
      "type": "function",
      "constant": true
    },
    {
      "inputs": [],
      "name": "testNum",
      "outputs": [
        {
          "internalType": "uint256",
          "name": "",
          "type": "uint256"
        }
      ],
      "stateMutability": "view",
      "type": "function",
      "constant": true
    },
    {
      "inputs": [],
      "name": "testStr",
      "outputs": [
        {
          "internalType": "bytes32",
          "name": "",
          "type": "bytes32"
        }
      ],
      "stateMutability": "view",
      "type": "function",
      "constant": true
    },
    {
      "stateMutability": "payable",
      "type": "receive",
      "payable": true
    },
    {
      "inputs": [],
      "name": "test",
      "outputs": [],
      "stateMutability": "nonpayable",
      "type": "function"
    },
    {
      "inputs": [],
      "name": "test1",
      "outputs": [],
      "stateMutability": "nonpayable",
      "type": "function"
    },
    {
      "inputs": [],
      "name": "emitLog",
      "outputs": [
        {
          "internalType": "bytes32",
          "name": "",
          "type": "bytes32"
        }
      ],
      "stateMutability": "pure",
      "type": "function",
      "constant": true
    },
    {
      "inputs": [],
      "name": "addFunds",
      "outputs": [],
      "stateMutability": "payable",
      "type": "function",
      "payable": true
    },
    {
      "inputs": [
        {
          "internalType": "uint256",
          "name": "withdrawAmount",
          "type": "uint256"
        }
      ],
      "name": "withdraw",
      "outputs": [],
      "stateMutability": "nonpayable",
      "type": "function"
    },
    {
      "inputs": [],
      "name": "getAllFunders",
      "outputs": [
        {
          "internalType": "address[]",
          "name": "",
          "type": "address[]"
        }
      ],
      "stateMutability": "view",
      "type": "function",
      "constant": true
    },
    {
      "inputs": [
        {
          "internalType": "uint8",
          "name": "index",
          "type": "uint8"
        }
      ],
      "name": "getfFunderAtIndex",
      "outputs": [
        {
          "internalType": "address",
          "name": "",
          "type": "address"
        }
      ],
      "stateMutability": "view",
      "type": "function",
      "constant": true
    }
  ],
  "bytecode": "0x608060405234801561001057600080fd5b50336000806101000a81548173ffffffffffffffffffffffffffffffffffffffff021916908373ffffffffffffffffffffffffffffffffffffffff16021790555060646001819055507f6675636b6d650000000000000000000000000000000000000000000000000000600281905550610bae8061008f6000396000f3fe6080604052600436106100c65760003560e01c80638da5cb5b1161007f578063af7f2c9b11610059578063af7f2c9b1461021e578063e3b6b98314610249578063f42c13bf14610286578063f8a8fd6d146102b1576100cd565b80638da5cb5b146101be578063a26759cb146101e9578063ae28f1ed146101f3576100cd565b80632e1a7d4d146100d25780632f91be48146100fb5780633ac559931461012657806350566375146101515780636b59084d1461017c5780636fbbb55d14610193576100cd565b366100cd57005b600080fd5b3480156100de57600080fd5b506100f960048036038101906100f491906107c0565b6102c8565b005b34801561010757600080fd5b5061011061035e565b60405161011d9190610947565b60405180910390f35b34801561013257600080fd5b5061013b610368565b6040516101489190610947565b60405180910390f35b34801561015d57600080fd5b5061016661036e565b60405161017391906109a2565b60405180910390f35b34801561018857600080fd5b50610191610378565b005b34801561019f57600080fd5b506101a8610408565b6040516101b59190610925565b60405180910390f35b3480156101ca57600080fd5b506101d361054e565b6040516101e0919061090a565b60405180910390f35b6101f1610572565b005b3480156101ff57600080fd5b50610208610692565b60405161021591906109a2565b60405180910390f35b34801561022a57600080fd5b50610233610698565b60405161024091906109a2565b60405180910390f35b34801561025557600080fd5b50610270600480360381019061026b91906107e9565b61069e565b60405161027d919061090a565b60405180910390f35b34801561029257600080fd5b5061029b6106de565b6040516102a89190610947565b60405180910390f35b3480156102bd57600080fd5b506102c6610706565b005b80674563918244f400008110610313576040517f08c379a000000000000000000000000000000000000000000000000000000000815260040161030a90610962565b60405180910390fd5b3373ffffffffffffffffffffffffffffffffffffffff166108fc839081150290604051600060405180830381858888f19350505050158015610359573d6000803e3d6000fd5b505050565b6000600254905090565b60025481565b6000600154905090565b60008054906101000a900473ffffffffffffffffffffffffffffffffffffffff1673ffffffffffffffffffffffffffffffffffffffff163373ffffffffffffffffffffffffffffffffffffffff1614610406576040517f08c379a00000000000000000000000000000000000000000000000000000000081526004016103fd90610982565b60405180910390fd5b565b6060600060035467ffffffffffffffff81111561044e577f4e487b7100000000000000000000000000000000000000000000000000000000600052604160045260246000fd5b60405190808252806020026020018201604052801561047c5781602001602082028036833780820191505090505b50905060005b600354811015610546576005600082815260200190815260200160002060009054906101000a900473ffffffffffffffffffffffffffffffffffffffff168282815181106104f9577f4e487b7100000000000000000000000000000000000000000000000000000000600052603260045260246000fd5b602002602001019073ffffffffffffffffffffffffffffffffffffffff16908173ffffffffffffffffffffffffffffffffffffffff1681525050808061053e90610a5a565b915050610482565b508091505090565b60008054906101000a900473ffffffffffffffffffffffffffffffffffffffff1681565b6000339050600460008273ffffffffffffffffffffffffffffffffffffffff1673ffffffffffffffffffffffffffffffffffffffff16815260200190815260200160002060009054906101000a900460ff1661068f576000600360008154809291906105dd90610a5a565b9190505590506001600460008473ffffffffffffffffffffffffffffffffffffffff1673ffffffffffffffffffffffffffffffffffffffff16815260200190815260200160002060006101000a81548160ff021916908315150217905550816005600083815260200190815260200160002060006101000a81548173ffffffffffffffffffffffffffffffffffffffff021916908373ffffffffffffffffffffffffffffffffffffffff160217905550505b50565b60015481565b60035481565b6000600560008360ff16815260200190815260200160002060009054906101000a900473ffffffffffffffffffffffffffffffffffffffff169050919050565b60007f48656c6c6f20776f726c64000000000000000000000000000000000000000000905090565b60008054906101000a900473ffffffffffffffffffffffffffffffffffffffff1673ffffffffffffffffffffffffffffffffffffffff163373ffffffffffffffffffffffffffffffffffffffff1614610794576040517f08c379a000000000000000000000000000000000000000000000000000000000815260040161078b90610982565b60405180910390fd5b565b6000813590506107a581610b4a565b92915050565b6000813590506107ba81610b61565b92915050565b6000602082840312156107d257600080fd5b60006107e084828501610796565b91505092915050565b6000602082840312156107fb57600080fd5b6000610809848285016107ab565b91505092915050565b600061081e838361082a565b60208301905092915050565b61083381610a07565b82525050565b61084281610a07565b82525050565b6000610853826109cd565b61085d81856109e5565b9350610868836109bd565b8060005b838110156108995781516108808882610812565b975061088b836109d8565b92505060018101905061086c565b5085935050505092915050565b6108af81610a19565b82525050565b60006108c26021836109f6565b91506108cd82610ad2565b604082019050919050565b60006108e56020836109f6565b91506108f082610b21565b602082019050919050565b61090481610a43565b82525050565b600060208201905061091f6000830184610839565b92915050565b6000602082019050818103600083015261093f8184610848565b905092915050565b600060208201905061095c60008301846108a6565b92915050565b6000602082019050818103600083015261097b816108b5565b9050919050565b6000602082019050818103600083015261099b816108d8565b9050919050565b60006020820190506109b760008301846108fb565b92915050565b6000819050602082019050919050565b600081519050919050565b6000602082019050919050565b600082825260208201905092915050565b600082825260208201905092915050565b6000610a1282610a23565b9050919050565b6000819050919050565b600073ffffffffffffffffffffffffffffffffffffffff82169050919050565b6000819050919050565b600060ff82169050919050565b6000610a6582610a43565b91507fffffffffffffffffffffffffffffffffffffffffffffffffffffffffffffffff821415610a9857610a97610aa3565b5b600182019050919050565b7f4e487b7100000000000000000000000000000000000000000000000000000000600052601160045260246000fd5b7f43616e6e6f74207769746864726177206d6f7265207468616e2031206574686560008201527f7200000000000000000000000000000000000000000000000000000000000000602082015250565b7f4f6e6c206f776e65722063616e2063616c6c20746869732066756e6374696f6e600082015250565b610b5381610a43565b8114610b5e57600080fd5b50565b610b6a81610a4d565b8114610b7557600080fd5b5056fea2646970667358221220d0db692b74f9d4c97976309b998830712041aa28b8fb3d44f460d9115fcd5b0964736f6c63430008040033",
  "immutableReferences": {},
  "source": "// SPDX-License-Identifier: MIT\npragma solidity >=0.4.22 <0.9.0;\n\nimport \"./Owned.sol\";\nimport \"./Logger.sol\";\nimport \"./InterfaceHelloWorld.sol\";\n\ncontract HelloWorld is Owned, Logger, InterfaceHelloWorld {\n    uint256 public numOfFunders;\n    mapping(address => bool) private funders;\n    mapping(uint256 => address) private lookupFunders;\n\n    modifier limitWithdraw(uint256 withdrawAmount) {\n        require(\n            withdrawAmount < 5000000000000000000,\n            \"Cannot withdraw more than 1 ether\"\n        );\n        _;\n    }\n\n    // this is a special functions\n    // it's called when you make tx that doesn't specify\n    // function name to call.\n\n    // External function are part of the contract inteface\n    // which mean they can be called via contracts and other txs\n    receive() external payable {}\n\n    function test() external onlyOwner {\n        // some function\n    }\n\n    function test1() external onlyOwner {\n        // some function\n    }\n\n    function emitLog() public pure override returns (bytes32) {\n        return \"Hello world\";\n    }\n\n    function addFunds() external payable override {\n        address funder = msg.sender;\n        if (!funders[funder]) {\n            uint256 index = numOfFunders++;\n            funders[funder] = true;\n            lookupFunders[index] = funder;\n        }\n    }\n\n    function withdraw(uint256 withdrawAmount)\n        external\n        override\n        limitWithdraw(withdrawAmount)\n    {\n        payable(msg.sender).transfer(withdrawAmount);\n    }\n\n    function getAllFunders() external view returns (address[] memory) {\n        address[] memory _funders = new address[](numOfFunders);\n\n        for (uint256 i = 0; i < numOfFunders; i++) {\n            _funders[i] = lookupFunders[i];\n        }\n\n        return _funders;\n    }\n\n    function getfFunderAtIndex(uint8 index) external view returns (address) {\n        return lookupFunders[index];\n    }\n}\n\n// Two types of functions, pure and view.\n// pure and view are read-only call, no gas free.\n// view - it indicates that the functions will not alter the storage state in any way.\n// pure - even more strict, indicating that it won't even read the storage state.\n\n// Transactions (can generate state change) and require gas fee\n",
  "sourcePath": "/home/harshitsinghai/Documents/Projects/web3/my-web3-app/contracts/HelloWorldContract.sol",
  "compiler": {
    "name": "solc",
    "version": "0.8.4+commit.c7e474f2.Emscripten.clang"
  },
  "schemaVersion": "3.4.3",
  "updatedAt": "2021-11-24T10:39:38.259Z",
  "networkType": "ethereum",
  "devdoc": {
    "kind": "dev",
    "methods": {},
    "version": 1
  },
  "userdoc": {
    "kind": "user",
    "methods": {},
    "version": 1
  }
}